{
  "contractName": "CoinFlipper",
  "abi": [
    {
      "constant": true,
      "inputs": [
        {
          "name": "",
          "type": "uint256"
        }
      ],
      "name": "Useraccnts",
      "outputs": [
        {
          "name": "",
          "type": "address"
        }
      ],
      "payable": false,
      "stateMutability": "view",
      "type": "function"
    },
    {
      "constant": true,
      "inputs": [],
      "name": "lastresult",
      "outputs": [
        {
          "name": "",
          "type": "string"
        }
      ],
      "payable": false,
      "stateMutability": "view",
      "type": "function"
    },
    {
      "constant": true,
      "inputs": [
        {
          "name": "",
          "type": "uint256"
        }
      ],
      "name": "Transactionsaccnts",
      "outputs": [
        {
          "name": "",
          "type": "int256"
        }
      ],
      "payable": false,
      "stateMutability": "view",
      "type": "function"
    },
    {
      "inputs": [],
      "payable": true,
      "stateMutability": "payable",
      "type": "constructor"
    },
    {
      "constant": true,
      "inputs": [],
      "name": "getBalance",
      "outputs": [
        {
          "name": "",
          "type": "uint256"
        }
      ],
      "payable": false,
      "stateMutability": "view",
      "type": "function"
    },
    {
      "constant": false,
      "inputs": [],
      "name": "balanceDeploy",
      "outputs": [],
      "payable": true,
      "stateMutability": "payable",
      "type": "function"
    },
    {
      "constant": true,
      "inputs": [
        {
          "name": "wager",
          "type": "uint128"
        }
      ],
      "name": "sha",
      "outputs": [
        {
          "name": "",
          "type": "uint256"
        }
      ],
      "payable": false,
      "stateMutability": "view",
      "type": "function"
    },
    {
      "constant": false,
      "inputs": [],
      "name": "betAndFlip",
      "outputs": [],
      "payable": true,
      "stateMutability": "payable",
      "type": "function"
    },
    {
      "constant": true,
      "inputs": [],
      "name": "getCountOfUsers",
      "outputs": [
        {
          "name": "",
          "type": "uint256"
        }
      ],
      "payable": false,
      "stateMutability": "view",
      "type": "function"
    },
    {
      "constant": true,
      "inputs": [
        {
          "name": "_address",
          "type": "address"
        },
        {
          "name": "_password",
          "type": "string"
        }
      ],
      "name": "checkLogin",
      "outputs": [
        {
          "name": "",
          "type": "string"
        }
      ],
      "payable": false,
      "stateMutability": "view",
      "type": "function"
    },
    {
      "constant": true,
      "inputs": [
        {
          "name": "_address",
          "type": "address"
        }
      ],
      "name": "getUser",
      "outputs": [
        {
          "name": "",
          "type": "string"
        }
      ],
      "payable": false,
      "stateMutability": "view",
      "type": "function"
    },
    {
      "constant": false,
      "inputs": [
        {
          "name": "_address",
          "type": "address"
        },
        {
          "name": "_name",
          "type": "string"
        },
        {
          "name": "_password",
          "type": "string"
        }
      ],
      "name": "register",
      "outputs": [
        {
          "name": "",
          "type": "string"
        }
      ],
      "payable": false,
      "stateMutability": "nonpayable",
      "type": "function"
    },
    {
      "constant": true,
      "inputs": [
        {
          "name": "input",
          "type": "address"
        }
      ],
      "name": "checkUser",
      "outputs": [
        {
          "name": "",
          "type": "bool"
        }
      ],
      "payable": false,
      "stateMutability": "view",
      "type": "function"
    },
    {
      "constant": true,
      "inputs": [
        {
          "name": "fId",
          "type": "int256"
        }
      ],
      "name": "transactionDet",
      "outputs": [
        {
          "name": "",
          "type": "address"
        },
        {
          "name": "",
          "type": "int256"
        },
        {
          "name": "",
          "type": "string"
        },
        {
          "name": "",
          "type": "uint256"
        }
      ],
      "payable": false,
      "stateMutability": "view",
      "type": "function"
    },
    {
      "constant": true,
      "inputs": [],
      "name": "getTotalTransactions",
      "outputs": [
        {
          "name": "",
          "type": "int256[]"
        }
      ],
      "payable": false,
      "stateMutability": "view",
      "type": "function"
    },
    {
      "constant": true,
      "inputs": [],
      "name": "gamesPlayed",
      "outputs": [
        {
          "name": "",
          "type": "uint256"
        }
      ],
      "payable": false,
      "stateMutability": "view",
      "type": "function"
    },
    {
      "constant": true,
      "inputs": [],
      "name": "getLastBlockNumberUsed",
      "outputs": [
        {
          "name": "",
          "type": "uint256"
        }
      ],
      "payable": false,
      "stateMutability": "view",
      "type": "function"
    },
    {
      "constant": true,
      "inputs": [],
      "name": "getLastBlockHashedUsed",
      "outputs": [
        {
          "name": "",
          "type": "bytes32"
        }
      ],
      "payable": false,
      "stateMutability": "view",
      "type": "function"
    },
    {
      "constant": true,
      "inputs": [],
      "name": "getLastResult",
      "outputs": [
        {
          "name": "",
          "type": "string"
        }
      ],
      "payable": false,
      "stateMutability": "view",
      "type": "function"
    },
    {
      "constant": true,
      "inputs": [],
      "name": "getLastBetValue",
      "outputs": [
        {
          "name": "",
          "type": "int256"
        }
      ],
      "payable": false,
      "stateMutability": "view",
      "type": "function"
    },
    {
      "constant": false,
      "inputs": [],
      "name": "kill",
      "outputs": [],
      "payable": false,
      "stateMutability": "nonpayable",
      "type": "function"
    }
  ],
  "bytecode": "0x60606040526040805190810160405280600181526020017f3d00000000000000000000000000000000000000000000000000000000000000815250600290805190602001906200005192919062000134565b506001600555336000806101000a81548173ffffffffffffffffffffffffffffffffffffffff021916908373ffffffffffffffffffffffffffffffffffffffff1602179055506040805190810160405280600d81526020017f6e6f20776167657273207965740000000000000000000000000000000000000081525060049080519060200190620000e492919062000134565b50600060018190555030600360006101000a81548173ffffffffffffffffffffffffffffffffffffffff021916908373ffffffffffffffffffffffffffffffffffffffff160217905550620001e3565b828054600181600116156101000203166002900490600052602060002090601f016020900481019282601f106200017757805160ff1916838001178555620001a8565b82800160010185558215620001a8579182015b82811115620001a75782518255916020019190600101906200018a565b5b509050620001b79190620001bb565b5090565b620001e091905b80821115620001dc576000816000905550600101620001c2565b5090565b90565b6119b480620001f36000396000f300606060405260043610610112576000357c0100000000000000000000000000000000000000000000000000000000900463ffffffff16806312065fe0146101175780631e9d48cf1461014057806325d8dcf21461019157806334dbe44d1461019b57806337226038146101c457806341c0e1b5146102b95780634fff53bb146102ce57806363418a1b146102f75780636c39b7ee1461035a5780636f77926b146103835780638d59cc021461043557806392093dd61461056d57806392b856f7146105fb578063b5c604ff146106d8578063ba3fc89a14610742578063bd3491f21461076b578063c1841806146107f9578063c69a306214610830578063d9f9ed0e14610861578063f9e05ed91461086b575b600080fd5b341561012257600080fd5b61012a6108b4565b6040518082815260200191505060405180910390f35b341561014b57600080fd5b610177600480803573ffffffffffffffffffffffffffffffffffffffff169060200190919050506108f5565b604051808215151515815260200191505060405180910390f35b610199610999565b005b34156101a657600080fd5b6101ae610dce565b6040518082815260200191505060405180910390f35b34156101cf57600080fd5b61023e600480803573ffffffffffffffffffffffffffffffffffffffff1690602001909190803590602001908201803590602001908080601f01602080910402602001604051908101604052809392919081815260200183838082843782019150505050505091905050610dd8565b6040518080602001828103825283818151815260200191508051906020019080838360005b8381101561027e578082015181840152602081019050610263565b50505050905090810190601f1680156102ab5780820380516001836020036101000a031916815260200191505b509250505060405180910390f35b34156102c457600080fd5b6102cc610fc8565b005b34156102d957600080fd5b6102e1611059565b6040518082815260200191505060405180910390f35b341561030257600080fd5b6103186004808035906020019091905050611063565b604051808273ffffffffffffffffffffffffffffffffffffffff1673ffffffffffffffffffffffffffffffffffffffff16815260200191505060405180910390f35b341561036557600080fd5b61036d6110a2565b6040518082815260200191505060405180910390f35b341561038e57600080fd5b6103ba600480803573ffffffffffffffffffffffffffffffffffffffff169060200190919050506110af565b6040518080602001828103825283818151815260200191508051906020019080838360005b838110156103fa5780820151818401526020810190506103df565b50505050905090810190601f1680156104275780820380516001836020036101000a031916815260200191505b509250505060405180910390f35b341561044057600080fd5b6104f2600480803573ffffffffffffffffffffffffffffffffffffffff1690602001909190803590602001908201803590602001908080601f0160208091040260200160405190810160405280939291908181526020018383808284378201915050505050509190803590602001908201803590602001908080601f01602080910402602001604051908101604052809392919081815260200183838082843782019150505050505091905050611199565b6040518080602001828103825283818151815260200191508051906020019080838360005b83811015610532578082015181840152602081019050610517565b50505050905090810190601f16801561055f5780820380516001836020036101000a031916815260200191505b509250505060405180910390f35b341561057857600080fd5b610580611309565b6040518080602001828103825283818151815260200191508051906020019080838360005b838110156105c05780820151818401526020810190506105a5565b50505050905090810190601f1680156105ed5780820380516001836020036101000a031916815260200191505b509250505060405180910390f35b341561060657600080fd5b61061c60048080359060200190919050506113b1565b604051808573ffffffffffffffffffffffffffffffffffffffff1673ffffffffffffffffffffffffffffffffffffffff16815260200184815260200180602001838152602001828103825284818151815260200191508051906020019080838360005b8381101561069a57808201518184015260208101905061067f565b50505050905090810190601f1680156106c75780820380516001836020036101000a031916815260200191505b509550505050505060405180910390f35b34156106e357600080fd5b6106eb6114b3565b6040518080602001828103825283818151815260200191508051906020019060200280838360005b8381101561072e578082015181840152602081019050610713565b505050509050019250505060405180910390f35b341561074d57600080fd5b610755611511565b6040518082815260200191505060405180910390f35b341561077657600080fd5b61077e61151e565b6040518080602001828103825283818151815260200191508051906020019080838360005b838110156107be5780820151818401526020810190506107a3565b50505050905090810190601f1680156107eb5780820380516001836020036101000a031916815260200191505b509250505060405180910390f35b341561080457600080fd5b61081a60048080359060200190919050506115bc565b6040518082815260200191505060405180910390f35b341561083b57600080fd5b6108436115e0565b60405180826000191660001916815260200191505060405180910390f35b6108696115ea565b005b341561087657600080fd5b61089e60048080356fffffffffffffffffffffffffffffffff169060200190919050506115ec565b6040518082815260200191505060405180910390f35b6000600360009054906101000a900473ffffffffffffffffffffffffffffffffffffffff1673ffffffffffffffffffffffffffffffffffffffff1631905090565b600080600090505b60098054905081101561098e5760098181548110151561091957fe5b906000526020600020900160009054906101000a900473ffffffffffffffffffffffffffffffffffffffff1673ffffffffffffffffffffffffffffffffffffffff168373ffffffffffffffffffffffffffffffffffffffff1614156109815760019150610993565b80806001019150506108fd565b600091505b50919050565b60008060007063fffffffffffffe1eef50cc76993fffff341115610a50576040805190810160405280600f81526020017f776167657220746f6f206c61726765000000000000000000000000000000000081525060049080519060200190610a029291906117b7565b5060006001819055503373ffffffffffffffffffffffffffffffffffffffff166108fc349081150290604051600060405180830381858888f193505050501515610a4b57600080fd5b610dc9565b600360009054906101000a900473ffffffffffffffffffffffffffffffffffffffff1673ffffffffffffffffffffffffffffffffffffffff1631600234021115610b5457606060405190810160405280602e81526020017f776167657220746f6f206c61726765207468616e20636f6e747261637427732081526020017f6162696c69747920746f2070617900000000000000000000000000000000000081525060049080519060200190610b069291906117b7565b5060006001819055503373ffffffffffffffffffffffffffffffffffffffff166108fc349081150290604051600060405180830381858888f193505050501515610b4f57600080fd5b610dc9565b6000341415610bb6576040805190810160405280600e81526020017f776167657220776173207a65726f00000000000000000000000000000000000081525060049080519060200190610ba89291906117b7565b506000600181905550610dc9565b3492506001430360068190555060065440600781600019169055508260075460019004019150610be5826115ec565b90506000600282811515610bf557fe5b061415610cba57826fffffffffffffffffffffffffffffffff166001819055506040805190810160405280600481526020017f6c6f73730000000000000000000000000000000000000000000000000000000081525060049080519060200190610c609291906117b7565b506040805190810160405280600181526020017f2b0000000000000000000000000000000000000000000000000000000000000081525060029080519060200190610cac9291906117b7565b50610cb56116ab565b610dc9565b826fffffffffffffffffffffffffffffffff166001819055506040805190810160405280600381526020017f77696e000000000000000000000000000000000000000000000000000000000081525060049080519060200190610d1e9291906117b7565b50610d276116ab565b6040805190810160405280600181526020017f2d0000000000000000000000000000000000000000000000000000000000000081525060029080519060200190610d729291906117b7565b503373ffffffffffffffffffffffffffffffffffffffff166108fc600285026fffffffffffffffffffffffffffffffff169081150290604051600060405180830381858888f193505050501515610dc857600080fd5b5b505050565b6000600654905090565b610de0611837565b6000610deb846108f5565b15610f8857600860008573ffffffffffffffffffffffffffffffffffffffff1673ffffffffffffffffffffffffffffffffffffffff1681526020019081526020016000209050826040518082805190602001908083835b602083101515610e675780518252602082019150602081019050602083039250610e42565b6001836020036101000a038019825116818451168082178552505050505050905001915050604051809103902060001916816001016040518082805460018160011615610100020316600290048015610ef75780601f10610ed5576101008083540402835291820191610ef7565b820191906000526020600020905b815481529060010190602001808311610ee3575b50509150506040518091039020600019161415610f4b576040805190810160405280600481526020017f74727565000000000000000000000000000000000000000000000000000000008152509150610fc1565b6040805190810160405280600e81526020017f77726f6e672070617373776f72640000000000000000000000000000000000008152509150610fc1565b6040805190810160405280600581526020017f66616c736500000000000000000000000000000000000000000000000000000081525091505b5092915050565b6000809054906101000a900473ffffffffffffffffffffffffffffffffffffffff1673ffffffffffffffffffffffffffffffffffffffff163373ffffffffffffffffffffffffffffffffffffffff161415611057576000809054906101000a900473ffffffffffffffffffffffffffffffffffffffff1673ffffffffffffffffffffffffffffffffffffffff16ff5b565b6000600154905090565b60098181548110151561107257fe5b90600052602060002090016000915054906101000a900473ffffffffffffffffffffffffffffffffffffffff1681565b6000600b80549050905090565b6110b7611837565b600860008373ffffffffffffffffffffffffffffffffffffffff1673ffffffffffffffffffffffffffffffffffffffff1681526020019081526020016000206000018054600181600116156101000203166002900480601f01602080910402602001604051908101604052809291908181526020018280546001816001161561010002031660029004801561118d5780601f106111625761010080835404028352916020019161118d565b820191906000526020600020905b81548152906001019060200180831161117057829003601f168201915b50505050509050919050565b6111a1611837565b60006111ac856108f5565b15156112c8576001600980548060010182816111c8919061184b565b9160005260206000209001600088909190916101000a81548173ffffffffffffffffffffffffffffffffffffffff021916908373ffffffffffffffffffffffffffffffffffffffff1602179055505050600860008673ffffffffffffffffffffffffffffffffffffffff1673ffffffffffffffffffffffffffffffffffffffff1681526020019081526020016000209050838160000190805190602001906112719291906117b7565b508281600101908051906020019061128a9291906117b7565b506040805190810160405280600a81526020017f52656769737465726564000000000000000000000000000000000000000000008152509150611301565b6040805190810160405280600d81526020017f4e6f74526567697374657265640000000000000000000000000000000000000081525091505b509392505050565b611311611837565b60048054600181600116156101000203166002900480601f0160208091040260200160405190810160405280929190818152602001828054600181600116156101000203166002900480156113a75780601f1061137c576101008083540402835291602001916113a7565b820191906000526020600020905b81548152906001019060200180831161138a57829003601f168201915b5050505050905090565b6000806113bc611837565b600080600a600087815260200190815260200160002090508060000160009054906101000a900473ffffffffffffffffffffffffffffffffffffffff168160020154826001018360030154818054600181600116156101000203166002900480601f01602080910402602001604051908101604052809291908181526020018280546001816001161561010002031660029004801561149c5780601f106114715761010080835404028352916020019161149c565b820191906000526020600020905b81548152906001019060200180831161147f57829003601f168201915b505050505091509450945094509450509193509193565b6114bb611877565b600b80548060200260200160405190810160405280929190818152602001828054801561150757602002820191906000526020600020905b8154815260200190600101908083116114f3575b5050505050905090565b6000600980549050905090565b60048054600181600116156101000203166002900480601f0160208091040260200160405190810160405280929190818152602001828054600181600116156101000203166002900480156115b45780601f10611589576101008083540402835291602001916115b4565b820191906000526020600020905b81548152906001019060200180831161159757829003601f168201915b505050505081565b600b818154811015156115cb57fe5b90600052602060002090016000915090505481565b6000600754905090565b565b600044414260075485604051808681526020018573ffffffffffffffffffffffffffffffffffffffff1673ffffffffffffffffffffffffffffffffffffffff166c010000000000000000000000000281526014018481526020018360001916600019168152602001826fffffffffffffffffffffffffffffffff166fffffffffffffffffffffffffffffffff16700100000000000000000000000000000000028152601001955050505050506040518091039020600190049050919050565b6000600a600060055481526020019081526020016000209050338160000160006101000a81548173ffffffffffffffffffffffffffffffffffffffff021916908373ffffffffffffffffffffffffffffffffffffffff1602179055506001548160020181905550600481600101908054600181600116156101000203166002900461173792919061188b565b50600360009054906101000a900473ffffffffffffffffffffffffffffffffffffffff1673ffffffffffffffffffffffffffffffffffffffff163181600301819055506001600b80548060010182816117909190611912565b91600052602060002090016000600554909190915055505060016005540160058190555050565b828054600181600116156101000203166002900490600052602060002090601f016020900481019282601f106117f857805160ff1916838001178555611826565b82800160010185558215611826579182015b8281111561182557825182559160200191906001019061180a565b5b509050611833919061193e565b5090565b602060405190810160405280600081525090565b81548183558181151161187257818360005260206000209182019101611871919061193e565b5b505050565b602060405190810160405280600081525090565b828054600181600116156101000203166002900490600052602060002090601f016020900481019282601f106118c45780548555611901565b8280016001018555821561190157600052602060002091601f016020900482015b828111156119005782548255916001019190600101906118e5565b5b50905061190e919061193e565b5090565b815481835581811511611939578183600052602060002091820191016119389190611963565b5b505050565b61196091905b8082111561195c576000816000905550600101611944565b5090565b90565b61198591905b80821115611981576000816000905550600101611969565b5090565b905600a165627a7a723058201fa931a2ee866668f24bca076391bef5ed05ea4ffb29a4b158a2e7434eaed83d0029",
  "source": "pragma solidity ^0.4.19;\ncontract CoinFlipper {\n    address creator;\n    int lastgainloss;\n    string indicator=\"=\";\n    address coin;\n    string public lastresult;\n    int tid=1;\n    uint lastblocknumberused;\n    bytes32 lastblockhashused;\n    \n    function CoinFlipper() public payable\n    {\n        creator = msg.sender;\n        lastresult =\"no wagers yet\";\n        lastgainloss = 0;\n        coin=this;\n    \n    }\n    function getBalance() public view returns (uint)\n    {\n        return coin.balance;\n    }\n    function balanceDeploy() public payable \n    {\n        \n    }\n    \n    function sha(uint128 wager) constant public returns(uint256)\n    {\n        return uint256(keccak256(block.difficulty,block.coinbase,now,lastblockhashused,wager));\n        \n    }\n    \n    function betAndFlip() public payable\n    {\n        if(msg.value > 34028236692093846337463374607431768211455)\n        {\n            lastresult = \"wager too large\";\n            lastgainloss = 0;\n            msg.sender.transfer(msg.value);\n            \n            return;\n        }\n        else if((msg.value * 2)> coin.balance)\n        {\n            lastresult=\"wager too large than contract's ability to pay\";\n            lastgainloss = 0;\n            msg.sender.transfer(msg.value);\n            return;\n        }\n        else if(msg.value==0)\n        {\n            lastresult = \"wager was zero\";\n            lastgainloss = 0;\n            return;\n        }\n        uint128 wager = uint128(msg.value);\n        \n        lastblocknumberused = block.number -1;\n        lastblockhashused = block.blockhash(lastblocknumberused);\n        uint128 lastblockhashused_uint = uint128(lastblockhashused) + wager;\n        uint  hashymchasterton = sha(lastblockhashused_uint);\n        \n        if(hashymchasterton%2 == 0)\n        {\n            lastgainloss = int(wager) ;\n            lastresult =\"loss\";\n            indicator=\"+\";\n            recordTransactions();\n            \n            return;\n        }\n        else\n        {\n            lastgainloss = wager;\n            lastresult = \"win\";\n            recordTransactions();\n            indicator=\"-\";\n            msg.sender.transfer(wager * 2);\n            \n        }\n        \n    }\n    \n    \n struct Transactions {\n        address _address;\n        string result;\n        int amount;\n        uint contractBal;\n    }\n    \n     struct  Users {\n        string name ;\n        string password;\n    }\n    \n    mapping (address => Users) users;\n    address[] public Useraccnts;\n    \n    function getCountOfUsers() public view returns (uint){\n        \n        return Useraccnts.length;\n    }\n    function checkLogin(address _address,string _password) public view returns (string){\n        \n        if(checkUser(_address))\n        {\n            Users storage myuser=users[_address];\n            if(keccak256(myuser.password)==keccak256(_password))\n            {\n               return \"true\";\n            }\n            else\n            {\n                return \"wrong password\";\n            }\n                \n        }\n        else{\n            return \"false\";\n        }\n    }\n    \n    \n    function  getUser(address _address)  public view returns(string) {\n        \n        return (users[_address].name);\n    }\n\n    function register(address _address,string _name,string _password) public returns (string)\n    {\n         if(!checkUser(_address))\n        {    \n            Useraccnts.push(_address)-1;\n              Users  storage myuser=users[_address];\n              myuser.name=_name;\n              myuser.password=_password;\n            \n            return \"Registered\";\n        }\n        else\n        {\n            return \"NotRegistered\";\n        }\n\n    }\n    \n    function checkUser(address input) view public returns(bool)\n    {\n        for(uint i=0;i<Useraccnts.length;i++)\n        {\n            if(input==Useraccnts[i])\n            {\n                return true;\n            }\n        }\n        return false;\n        \n    }\n    \n    mapping (int => Transactions) transactions;\n    int[]  public Transactionsaccnts;\n    \n    function recordTransactions() private {\n     Transactions storage transactor = transactions[tid];\n      transactor._address=msg.sender;    \n      transactor.amount=lastgainloss;\n      transactor.result=lastresult;\n      transactor.contractBal=coin.balance;\n        Transactionsaccnts.push(tid)-1;\n        tid=tid+1;\n    }\n    \n\n    function transactionDet(int fId)  public view returns(address,int,string,uint)\n    {\n        Transactions storage transactor = transactions[fId];\n        return (transactor._address,transactor.amount,transactor.result,transactor.contractBal);\n    }\n    function getTotalTransactions() view public returns(int[]) {\n        return Transactionsaccnts;\n    }\n    \n\n    \n    function gamesPlayed() view public returns (uint) {\n        return Transactionsaccnts.length;\n    }\n    \n    \n    \n    function getLastBlockNumberUsed() public view returns (uint)\n    {\n        return lastblocknumberused;\n    }\n    function getLastBlockHashedUsed() public constant returns (bytes32)\n    {\n        return lastblockhashused;\n    }\n    function getLastResult() public view returns (string)\n    {\n        return lastresult;\n    }\n    function getLastBetValue()  public view returns (int)\n    {\n        return lastgainloss;\n    }\n    function kill() public\n    {\n        if(msg.sender == creator){\n            selfdestruct(creator);\n        }\n    }\n}\n",
  "sourcePath": "/home/kmit/Desktop/CF/contracts/CoinFlipper.sol",
  "compiler": {
    "name": "solc",
    "version": "0.4.19+commit.c4cbbb05.Emscripten.clang"
  },
  "schemaVersion": "1.0.1",
  "updatedAt": "2018-06-27T06:46:33.269Z"
}